{
  "contractName": "CryptoBoys",
  "abi": [
    {
      "inputs": [],
      "stateMutability": "nonpayable",
      "type": "constructor"
    },
    {
      "anonymous": false,
      "inputs": [
        {
          "indexed": true,
          "internalType": "address",
          "name": "owner",
          "type": "address"
        },
        {
          "indexed": true,
          "internalType": "address",
          "name": "approved",
          "type": "address"
        },
        {
          "indexed": true,
          "internalType": "uint256",
          "name": "tokenId",
          "type": "uint256"
        }
      ],
      "name": "Approval",
      "type": "event"
    },
    {
      "anonymous": false,
      "inputs": [
        {
          "indexed": true,
          "internalType": "address",
          "name": "owner",
          "type": "address"
        },
        {
          "indexed": true,
          "internalType": "address",
          "name": "operator",
          "type": "address"
        },
        {
          "indexed": false,
          "internalType": "bool",
          "name": "approved",
          "type": "bool"
        }
      ],
      "name": "ApprovalForAll",
      "type": "event"
    },
    {
      "anonymous": false,
      "inputs": [
        {
          "indexed": true,
          "internalType": "address",
          "name": "from",
          "type": "address"
        },
        {
          "indexed": true,
          "internalType": "address",
          "name": "to",
          "type": "address"
        },
        {
          "indexed": true,
          "internalType": "uint256",
          "name": "tokenId",
          "type": "uint256"
        }
      ],
      "name": "Transfer",
      "type": "event"
    },
    {
      "inputs": [
        {
          "internalType": "uint256",
          "name": "",
          "type": "uint256"
        }
      ],
      "name": "allCryptoBoys",
      "outputs": [
        {
          "internalType": "uint256",
          "name": "tokenId",
          "type": "uint256"
        },
        {
          "internalType": "string",
          "name": "tokenName",
          "type": "string"
        },
        {
          "internalType": "string",
          "name": "tokenURI",
          "type": "string"
        },
        {
          "internalType": "address payable",
          "name": "mintedBy",
          "type": "address"
        },
        {
          "internalType": "address payable",
          "name": "currentOwner",
          "type": "address"
        },
        {
          "internalType": "address payable",
          "name": "previousOwner",
          "type": "address"
        },
        {
          "internalType": "uint256",
          "name": "price",
          "type": "uint256"
        },
        {
          "internalType": "uint256",
          "name": "numberOfTransfers",
          "type": "uint256"
        },
        {
          "internalType": "bool",
          "name": "forSale",
          "type": "bool"
        }
      ],
      "stateMutability": "view",
      "type": "function",
      "constant": true
    },
    {
      "inputs": [
        {
          "internalType": "address",
          "name": "to",
          "type": "address"
        },
        {
          "internalType": "uint256",
          "name": "tokenId",
          "type": "uint256"
        }
      ],
      "name": "approve",
      "outputs": [],
      "stateMutability": "nonpayable",
      "type": "function"
    },
    {
      "inputs": [
        {
          "internalType": "address",
          "name": "owner",
          "type": "address"
        }
      ],
      "name": "balanceOf",
      "outputs": [
        {
          "internalType": "uint256",
          "name": "",
          "type": "uint256"
        }
      ],
      "stateMutability": "view",
      "type": "function",
      "constant": true
    },
    {
      "inputs": [],
      "name": "baseURI",
      "outputs": [
        {
          "internalType": "string",
          "name": "",
          "type": "string"
        }
      ],
      "stateMutability": "view",
      "type": "function",
      "constant": true
    },
    {
      "inputs": [],
      "name": "collectionName",
      "outputs": [
        {
          "internalType": "string",
          "name": "",
          "type": "string"
        }
      ],
      "stateMutability": "view",
      "type": "function",
      "constant": true
    },
    {
      "inputs": [],
      "name": "collectionNameSymbol",
      "outputs": [
        {
          "internalType": "string",
          "name": "",
          "type": "string"
        }
      ],
      "stateMutability": "view",
      "type": "function",
      "constant": true
    },
    {
      "inputs": [
        {
          "internalType": "string",
          "name": "",
          "type": "string"
        }
      ],
      "name": "colorExists",
      "outputs": [
        {
          "internalType": "bool",
          "name": "",
          "type": "bool"
        }
      ],
      "stateMutability": "view",
      "type": "function",
      "constant": true
    },
    {
      "inputs": [],
      "name": "cryptoBoyCounter",
      "outputs": [
        {
          "internalType": "uint256",
          "name": "",
          "type": "uint256"
        }
      ],
      "stateMutability": "view",
      "type": "function",
      "constant": true
    },
    {
      "inputs": [
        {
          "internalType": "uint256",
          "name": "tokenId",
          "type": "uint256"
        }
      ],
      "name": "getApproved",
      "outputs": [
        {
          "internalType": "address",
          "name": "",
          "type": "address"
        }
      ],
      "stateMutability": "view",
      "type": "function",
      "constant": true
    },
    {
      "inputs": [
        {
          "internalType": "address",
          "name": "owner",
          "type": "address"
        },
        {
          "internalType": "address",
          "name": "operator",
          "type": "address"
        }
      ],
      "name": "isApprovedForAll",
      "outputs": [
        {
          "internalType": "bool",
          "name": "",
          "type": "bool"
        }
      ],
      "stateMutability": "view",
      "type": "function",
      "constant": true
    },
    {
      "inputs": [],
      "name": "name",
      "outputs": [
        {
          "internalType": "string",
          "name": "",
          "type": "string"
        }
      ],
      "stateMutability": "view",
      "type": "function",
      "constant": true
    },
    {
      "inputs": [
        {
          "internalType": "uint256",
          "name": "tokenId",
          "type": "uint256"
        }
      ],
      "name": "ownerOf",
      "outputs": [
        {
          "internalType": "address",
          "name": "",
          "type": "address"
        }
      ],
      "stateMutability": "view",
      "type": "function",
      "constant": true
    },
    {
      "inputs": [
        {
          "internalType": "address",
          "name": "from",
          "type": "address"
        },
        {
          "internalType": "address",
          "name": "to",
          "type": "address"
        },
        {
          "internalType": "uint256",
          "name": "tokenId",
          "type": "uint256"
        }
      ],
      "name": "safeTransferFrom",
      "outputs": [],
      "stateMutability": "nonpayable",
      "type": "function"
    },
    {
      "inputs": [
        {
          "internalType": "address",
          "name": "from",
          "type": "address"
        },
        {
          "internalType": "address",
          "name": "to",
          "type": "address"
        },
        {
          "internalType": "uint256",
          "name": "tokenId",
          "type": "uint256"
        },
        {
          "internalType": "bytes",
          "name": "_data",
          "type": "bytes"
        }
      ],
      "name": "safeTransferFrom",
      "outputs": [],
      "stateMutability": "nonpayable",
      "type": "function"
    },
    {
      "inputs": [
        {
          "internalType": "address",
          "name": "operator",
          "type": "address"
        },
        {
          "internalType": "bool",
          "name": "approved",
          "type": "bool"
        }
      ],
      "name": "setApprovalForAll",
      "outputs": [],
      "stateMutability": "nonpayable",
      "type": "function"
    },
    {
      "inputs": [
        {
          "internalType": "bytes4",
          "name": "interfaceId",
          "type": "bytes4"
        }
      ],
      "name": "supportsInterface",
      "outputs": [
        {
          "internalType": "bool",
          "name": "",
          "type": "bool"
        }
      ],
      "stateMutability": "view",
      "type": "function",
      "constant": true
    },
    {
      "inputs": [],
      "name": "symbol",
      "outputs": [
        {
          "internalType": "string",
          "name": "",
          "type": "string"
        }
      ],
      "stateMutability": "view",
      "type": "function",
      "constant": true
    },
    {
      "inputs": [
        {
          "internalType": "uint256",
          "name": "index",
          "type": "uint256"
        }
      ],
      "name": "tokenByIndex",
      "outputs": [
        {
          "internalType": "uint256",
          "name": "",
          "type": "uint256"
        }
      ],
      "stateMutability": "view",
      "type": "function",
      "constant": true
    },
    {
      "inputs": [
        {
          "internalType": "string",
          "name": "",
          "type": "string"
        }
      ],
      "name": "tokenNameExists",
      "outputs": [
        {
          "internalType": "bool",
          "name": "",
          "type": "bool"
        }
      ],
      "stateMutability": "view",
      "type": "function",
      "constant": true
    },
    {
      "inputs": [
        {
          "internalType": "address",
          "name": "owner",
          "type": "address"
        },
        {
          "internalType": "uint256",
          "name": "index",
          "type": "uint256"
        }
      ],
      "name": "tokenOfOwnerByIndex",
      "outputs": [
        {
          "internalType": "uint256",
          "name": "",
          "type": "uint256"
        }
      ],
      "stateMutability": "view",
      "type": "function",
      "constant": true
    },
    {
      "inputs": [
        {
          "internalType": "uint256",
          "name": "tokenId",
          "type": "uint256"
        }
      ],
      "name": "tokenURI",
      "outputs": [
        {
          "internalType": "string",
          "name": "",
          "type": "string"
        }
      ],
      "stateMutability": "view",
      "type": "function",
      "constant": true
    },
    {
      "inputs": [
        {
          "internalType": "string",
          "name": "",
          "type": "string"
        }
      ],
      "name": "tokenURIExists",
      "outputs": [
        {
          "internalType": "bool",
          "name": "",
          "type": "bool"
        }
      ],
      "stateMutability": "view",
      "type": "function",
      "constant": true
    },
    {
      "inputs": [],
      "name": "totalSupply",
      "outputs": [
        {
          "internalType": "uint256",
          "name": "",
          "type": "uint256"
        }
      ],
      "stateMutability": "view",
      "type": "function",
      "constant": true
    },
    {
      "inputs": [
        {
          "internalType": "address",
          "name": "from",
          "type": "address"
        },
        {
          "internalType": "address",
          "name": "to",
          "type": "address"
        },
        {
          "internalType": "uint256",
          "name": "tokenId",
          "type": "uint256"
        }
      ],
      "name": "transferFrom",
      "outputs": [],
      "stateMutability": "nonpayable",
      "type": "function"
    },
    {
      "inputs": [
        {
          "internalType": "string",
          "name": "_name",
          "type": "string"
        },
        {
          "internalType": "string",
          "name": "_tokenURI",
          "type": "string"
        },
        {
          "internalType": "uint256",
          "name": "_price",
          "type": "uint256"
        },
        {
          "internalType": "string[]",
          "name": "_colors",
          "type": "string[]"
        }
      ],
      "name": "mintCryptoBoy",
      "outputs": [],
      "stateMutability": "nonpayable",
      "type": "function"
    },
    {
      "inputs": [
        {
          "internalType": "uint256",
          "name": "_tokenId",
          "type": "uint256"
        }
      ],
      "name": "getTokenOwner",
      "outputs": [
        {
          "internalType": "address",
          "name": "",
          "type": "address"
        }
      ],
      "stateMutability": "view",
      "type": "function",
      "constant": true
    },
    {
      "inputs": [
        {
          "internalType": "uint256",
          "name": "_tokenId",
          "type": "uint256"
        }
      ],
      "name": "getTokenMetaData",
      "outputs": [
        {
          "internalType": "string",
          "name": "",
          "type": "string"
        }
      ],
      "stateMutability": "view",
      "type": "function",
      "constant": true
    },
    {
      "inputs": [],
      "name": "getNumberOfTokensMinted",
      "outputs": [
        {
          "internalType": "uint256",
          "name": "",
          "type": "uint256"
        }
      ],
      "stateMutability": "view",
      "type": "function",
      "constant": true
    },
    {
      "inputs": [
        {
          "internalType": "address",
          "name": "_owner",
          "type": "address"
        }
      ],
      "name": "getTotalNumberOfTokensOwnedByAnAddress",
      "outputs": [
        {
          "internalType": "uint256",
          "name": "",
          "type": "uint256"
        }
      ],
      "stateMutability": "view",
      "type": "function",
      "constant": true
    },
    {
      "inputs": [
        {
          "internalType": "uint256",
          "name": "_tokenId",
          "type": "uint256"
        }
      ],
      "name": "getTokenExists",
      "outputs": [
        {
          "internalType": "bool",
          "name": "",
          "type": "bool"
        }
      ],
      "stateMutability": "view",
      "type": "function",
      "constant": true
    },
    {
      "inputs": [
        {
          "internalType": "uint256",
          "name": "_tokenId",
          "type": "uint256"
        }
      ],
      "name": "buyToken",
      "outputs": [],
      "stateMutability": "payable",
      "type": "function",
      "payable": true
    },
    {
      "inputs": [
        {
          "internalType": "uint256",
          "name": "_tokenId",
          "type": "uint256"
        },
        {
          "internalType": "uint256",
          "name": "_newPrice",
          "type": "uint256"
        }
      ],
      "name": "changeTokenPrice",
      "outputs": [],
      "stateMutability": "nonpayable",
      "type": "function"
    },
    {
      "inputs": [
        {
          "internalType": "uint256",
          "name": "_tokenId",
          "type": "uint256"
        }
      ],
      "name": "toggleForSale",
      "outputs": [],
      "stateMutability": "nonpayable",
      "type": "function"
    }
  ],
  "bytecode": "0x60806040523480156200001157600080fd5b506040518060400160405280601681526020017f43727970746f20426f797320436f6c6c656374696f6e000000000000000000008152506040518060400160405280600281526020017f4342000000000000000000000000000000000000000000000000000000000000815250620000966301ffc9a760e01b6200016860201b60201c565b8160069080519060200190620000ae929190620003bd565b508060079080519060200190620000c7929190620003bd565b50620000e06380ac58cd60e01b6200016860201b60201c565b620000f8635b5e139f60e01b6200016860201b60201c565b6200011063780e9d6360e01b6200016860201b60201c565b5050620001226200027160201b60201c565b600a908051906020019062000139929190620003bd565b506200014a6200031760201b60201c565b600b908051906020019062000161929190620003bd565b5062000473565b63ffffffff60e01b817bffffffffffffffffffffffffffffffffffffffffffffffffffffffff1916141562000205576040517f08c379a000000000000000000000000000000000000000000000000000000000815260040180806020018281038252601c8152602001807f4552433136353a20696e76616c696420696e746572666163652069640000000081525060200191505060405180910390fd5b6001600080837bffffffffffffffffffffffffffffffffffffffffffffffffffffffff19167bffffffffffffffffffffffffffffffffffffffffffffffffffffffff1916815260200190815260200160002060006101000a81548160ff02191690831515021790555050565b606060068054600181600116156101000203166002900480601f0160208091040260200160405190810160405280929190818152602001828054600181600116156101000203166002900480156200030d5780601f10620002e1576101008083540402835291602001916200030d565b820191906000526020600020905b815481529060010190602001808311620002ef57829003601f168201915b5050505050905090565b606060078054600181600116156101000203166002900480601f016020809104026020016040519081016040528092919081815260200182805460018160011615610100020316600290048015620003b35780601f106200038757610100808354040283529160200191620003b3565b820191906000526020600020905b8154815290600101906020018083116200039557829003601f168201915b5050505050905090565b828054600181600116156101000203166002900490600052602060002090601f016020900481019282620003f5576000855562000441565b82601f106200041057805160ff191683800117855562000441565b8280016001018555821562000441579182015b828111156200044057825182559160200191906001019062000423565b5b50905062000450919062000454565b5090565b5b808211156200046f57600081600090555060010162000455565b5090565b614ad080620004836000396000f3fe6080604052600436106101ee5760003560e01c806367c623cf1161010d578063a32018b9116100a0578063bffec2021161006f578063bffec2021461078c578063c87b56dd146107b7578063cc151f3a146107f4578063e5326ab11461081f578063e985e9c51461084a576101ee565b8063a32018b9146106c0578063a46b1fac146106e9578063a5cd761f14610726578063b88d4fde14610763576101ee565b80638d44807c116100dc5780638d44807c1461060657806395d89b41146106435780639bfc5a591461066e578063a22cb46514610697576101ee565b806367c623cf146105365780636c0360eb146105735780636f9507f91461059e57806370a08231146105c9576101ee565b80632f745c591161018557806344c0d7eb1161015457806344c0d7eb1461044e5780634f6ccce71461049357806362e8e8ac146104d05780636352211e146104f9576101ee565b80632f745c591461036e57806342842e0e146103ab57806343902850146103d457806343d32ae714610411576101ee565b8063142687f3116101c1578063142687f3146102c157806318160ddd146102fe57806323b872dd146103295780632d296bf114610352576101ee565b806301ffc9a7146101f357806306fdde0314610230578063081812fc1461025b578063095ea7b314610298575b600080fd5b3480156101ff57600080fd5b5061021a60048036038101906102159190614253565b610887565b60405161022791906144e8565b60405180910390f35b34801561023c57600080fd5b506102456108ee565b6040516102529190614503565b60405180910390f35b34801561026757600080fd5b50610282600480360381019061027d919061436d565b610990565b60405161028f91906144cd565b60405180910390f35b3480156102a457600080fd5b506102bf60048036038101906102ba9190614217565b610a2b565b005b3480156102cd57600080fd5b506102e860048036038101906102e3919061436d565b610b6f565b6040516102f591906144e8565b60405180910390f35b34801561030a57600080fd5b50610313610b86565b6040516103209190614525565b60405180910390f35b34801561033557600080fd5b50610350600480360381019061034b9190614111565b610b97565b005b61036c6004803603810190610367919061436d565b610c0d565b005b34801561037a57600080fd5b5061039560048036038101906103909190614217565b6111e6565b6040516103a29190614525565b60405180910390f35b3480156103b757600080fd5b506103d260048036038101906103cd9190614111565b611241565b005b3480156103e057600080fd5b506103fb60048036038101906103f691906140ac565b611261565b6040516104089190614525565b60405180910390f35b34801561041d57600080fd5b506104386004803603810190610433919061427c565b611278565b60405161044591906144e8565b60405180910390f35b34801561045a57600080fd5b506104756004803603810190610470919061436d565b6112ae565b60405161048a99989796959493929190614540565b60405180910390f35b34801561049f57600080fd5b506104ba60048036038101906104b5919061436d565b611499565b6040516104c79190614525565b60405180910390f35b3480156104dc57600080fd5b506104f760048036038101906104f29190614396565b6114bc565b005b34801561050557600080fd5b50610520600480360381019061051b919061436d565b611964565b60405161052d91906144cd565b60405180910390f35b34801561054257600080fd5b5061055d6004803603810190610558919061436d565b61199b565b60405161056a9190614503565b60405180910390f35b34801561057f57600080fd5b506105886119b3565b6040516105959190614503565b60405180910390f35b3480156105aa57600080fd5b506105b3611a55565b6040516105c09190614503565b60405180910390f35b3480156105d557600080fd5b506105f060048036038101906105eb91906140ac565b611af3565b6040516105fd9190614525565b60405180910390f35b34801561061257600080fd5b5061062d6004803603810190610628919061427c565b611bc8565b60405161063a91906144e8565b60405180910390f35b34801561064f57600080fd5b50610658611bfe565b6040516106659190614503565b60405180910390f35b34801561067a57600080fd5b50610695600480360381019061069091906142bd565b611ca0565b005b3480156106a357600080fd5b506106be60048036038101906106b991906141db565b612060565b005b3480156106cc57600080fd5b506106e760048036038101906106e2919061436d565b612216565b005b3480156106f557600080fd5b50610710600480360381019061070b919061427c565b6126e8565b60405161071d91906144e8565b60405180910390f35b34801561073257600080fd5b5061074d6004803603810190610748919061436d565b61271e565b60405161075a91906144cd565b60405180910390f35b34801561076f57600080fd5b5061078a60048036038101906107859190614160565b612735565b005b34801561079857600080fd5b506107a16127ad565b6040516107ae9190614525565b60405180910390f35b3480156107c357600080fd5b506107de60048036038101906107d9919061436d565b6127b3565b6040516107eb9190614503565b60405180910390f35b34801561080057600080fd5b50610809612a84565b6040516108169190614525565b60405180910390f35b34801561082b57600080fd5b50610834612a98565b6040516108419190614503565b60405180910390f35b34801561085657600080fd5b50610871600480360381019061086c91906140d5565b612b36565b60405161087e91906144e8565b60405180910390f35b6000806000837bffffffffffffffffffffffffffffffffffffffffffffffffffffffff19167bffffffffffffffffffffffffffffffffffffffffffffffffffffffff1916815260200190815260200160002060009054906101000a900460ff169050919050565b606060068054600181600116156101000203166002900480601f0160208091040260200160405190810160405280929190818152602001828054600181600116156101000203166002900480156109865780601f1061095b57610100808354040283529160200191610986565b820191906000526020600020905b81548152906001019060200180831161096957829003601f168201915b5050505050905090565b600061099b82612bca565b6109f0576040517f08c379a000000000000000000000000000000000000000000000000000000000815260040180806020018281038252602c815260200180614999602c913960400191505060405180910390fd5b6004600083815260200190815260200160002060009054906101000a900473ffffffffffffffffffffffffffffffffffffffff169050919050565b6000610a3682611964565b90508073ffffffffffffffffffffffffffffffffffffffff168373ffffffffffffffffffffffffffffffffffffffff161415610abd576040517f08c379a0000000000000000000000000000000000000000000000000000000008152600401808060200182810382526021815260200180614a496021913960400191505060405180910390fd5b8073ffffffffffffffffffffffffffffffffffffffff16610adc612be7565b73ffffffffffffffffffffffffffffffffffffffff161480610b0b5750610b0a81610b05612be7565b612b36565b5b610b60576040517f08c379a00000000000000000000000000000000000000000000000000000000081526004018080602001828103825260388152602001806148ec6038913960400191505060405180910390fd5b610b6a8383612bef565b505050565b600080610b7b83612bca565b905080915050919050565b6000610b926002612ca8565b905090565b610ba8610ba2612be7565b82612cbd565b610bfd576040517f08c379a0000000000000000000000000000000000000000000000000000000008152600401808060200182810382526031815260200180614a6a6031913960400191505060405180910390fd5b610c08838383612db1565b505050565b600073ffffffffffffffffffffffffffffffffffffffff163373ffffffffffffffffffffffffffffffffffffffff161415610c4757600080fd5b610c5081612bca565b610c5957600080fd5b6000610c6482611964565b9050600073ffffffffffffffffffffffffffffffffffffffff168173ffffffffffffffffffffffffffffffffffffffff161415610ca057600080fd5b3373ffffffffffffffffffffffffffffffffffffffff168173ffffffffffffffffffffffffffffffffffffffff161415610cd957600080fd5b6000600d60008481526020019081526020016000206040518061012001604052908160008201548152602001600182018054600181600116156101000203166002900480601f016020809104026020016040519081016040528092919081815260200182805460018160011615610100020316600290048015610d9d5780601f10610d7257610100808354040283529160200191610d9d565b820191906000526020600020905b815481529060010190602001808311610d8057829003601f168201915b50505050508152602001600282018054600181600116156101000203166002900480601f016020809104026020016040519081016040528092919081815260200182805460018160011615610100020316600290048015610e3f5780601f10610e1457610100808354040283529160200191610e3f565b820191906000526020600020905b815481529060010190602001808311610e2257829003601f168201915b505050505081526020016003820160009054906101000a900473ffffffffffffffffffffffffffffffffffffffff1673ffffffffffffffffffffffffffffffffffffffff1673ffffffffffffffffffffffffffffffffffffffff1681526020016004820160009054906101000a900473ffffffffffffffffffffffffffffffffffffffff1673ffffffffffffffffffffffffffffffffffffffff1673ffffffffffffffffffffffffffffffffffffffff1681526020016005820160009054906101000a900473ffffffffffffffffffffffffffffffffffffffff1673ffffffffffffffffffffffffffffffffffffffff1673ffffffffffffffffffffffffffffffffffffffff16815260200160068201548152602001600782015481526020016008820160009054906101000a900460ff16151515158152505090508060c00151341015610f8c57600080fd5b806101000151610f9b57600080fd5b610fa6823385612db1565b6000816080015190508073ffffffffffffffffffffffffffffffffffffffff166108fc349081150290604051600060405180830381858888f19350505050158015610ff5573d6000803e3d6000fd5b5081608001518260a0019073ffffffffffffffffffffffffffffffffffffffff16908173ffffffffffffffffffffffffffffffffffffffff168152505033826080019073ffffffffffffffffffffffffffffffffffffffff16908173ffffffffffffffffffffffffffffffffffffffff168152505060018260e001818151019150818152505081600d60008681526020019081526020016000206000820151816000015560208201518160010190805190602001906110b5929190613e93565b5060408201518160020190805190602001906110d2929190613e93565b5060608201518160030160006101000a81548173ffffffffffffffffffffffffffffffffffffffff021916908373ffffffffffffffffffffffffffffffffffffffff16021790555060808201518160040160006101000a81548173ffffffffffffffffffffffffffffffffffffffff021916908373ffffffffffffffffffffffffffffffffffffffff16021790555060a08201518160050160006101000a81548173ffffffffffffffffffffffffffffffffffffffff021916908373ffffffffffffffffffffffffffffffffffffffff16021790555060c0820151816006015560e082015181600701556101008201518160080160006101000a81548160ff02191690831515021790555090505050505050565b600061123982600160008673ffffffffffffffffffffffffffffffffffffffff1673ffffffffffffffffffffffffffffffffffffffff168152602001908152602001600020612ff490919063ffffffff16565b905092915050565b61125c83838360405180602001604052806000815250612735565b505050565b60008061126d83611af3565b905080915050919050565b6010818051602081018201805184825260208301602085012081835280955050505050506000915054906101000a900460ff1681565b600d602052806000526040600020600091509050806000015490806001018054600181600116156101000203166002900480601f0160208091040260200160405190810160405280929190818152602001828054600181600116156101000203166002900480156113605780601f1061133557610100808354040283529160200191611360565b820191906000526020600020905b81548152906001019060200180831161134357829003601f168201915b505050505090806002018054600181600116156101000203166002900480601f0160208091040260200160405190810160405280929190818152602001828054600181600116156101000203166002900480156113fe5780601f106113d3576101008083540402835291602001916113fe565b820191906000526020600020905b8154815290600101906020018083116113e157829003601f168201915b5050505050908060030160009054906101000a900473ffffffffffffffffffffffffffffffffffffffff16908060040160009054906101000a900473ffffffffffffffffffffffffffffffffffffffff16908060050160009054906101000a900473ffffffffffffffffffffffffffffffffffffffff16908060060154908060070154908060080160009054906101000a900460ff16905089565b6000806114b083600261300e90919063ffffffff16565b50905080915050919050565b600073ffffffffffffffffffffffffffffffffffffffff163373ffffffffffffffffffffffffffffffffffffffff1614156114f657600080fd5b6114ff82612bca565b61150857600080fd5b600061151383611964565b90503373ffffffffffffffffffffffffffffffffffffffff168173ffffffffffffffffffffffffffffffffffffffff161461154d57600080fd5b6000600d60008581526020019081526020016000206040518061012001604052908160008201548152602001600182018054600181600116156101000203166002900480601f0160208091040260200160405190810160405280929190818152602001828054600181600116156101000203166002900480156116115780601f106115e657610100808354040283529160200191611611565b820191906000526020600020905b8154815290600101906020018083116115f457829003601f168201915b50505050508152602001600282018054600181600116156101000203166002900480601f0160208091040260200160405190810160405280929190818152602001828054600181600116156101000203166002900480156116b35780601f10611688576101008083540402835291602001916116b3565b820191906000526020600020905b81548152906001019060200180831161169657829003601f168201915b505050505081526020016003820160009054906101000a900473ffffffffffffffffffffffffffffffffffffffff1673ffffffffffffffffffffffffffffffffffffffff1673ffffffffffffffffffffffffffffffffffffffff1681526020016004820160009054906101000a900473ffffffffffffffffffffffffffffffffffffffff1673ffffffffffffffffffffffffffffffffffffffff1673ffffffffffffffffffffffffffffffffffffffff1681526020016005820160009054906101000a900473ffffffffffffffffffffffffffffffffffffffff1673ffffffffffffffffffffffffffffffffffffffff1673ffffffffffffffffffffffffffffffffffffffff16815260200160068201548152602001600782015481526020016008820160009054906101000a900460ff1615151515815250509050828160c001818152505080600d6000868152602001908152602001600020600082015181600001556020820151816001019080519060200190611833929190613e93565b506040820151816002019080519060200190611850929190613e93565b5060608201518160030160006101000a81548173ffffffffffffffffffffffffffffffffffffffff021916908373ffffffffffffffffffffffffffffffffffffffff16021790555060808201518160040160006101000a81548173ffffffffffffffffffffffffffffffffffffffff021916908373ffffffffffffffffffffffffffffffffffffffff16021790555060a08201518160050160006101000a81548173ffffffffffffffffffffffffffffffffffffffff021916908373ffffffffffffffffffffffffffffffffffffffff16021790555060c0820151816006015560e082015181600701556101008201518160080160006101000a81548160ff02191690831515021790555090505050505050565b60006119948260405180606001604052806029815260200161494e60299139600261303a9092919063ffffffff16565b9050919050565b606060006119a8836127b3565b905080915050919050565b606060098054600181600116156101000203166002900480601f016020809104026020016040519081016040528092919081815260200182805460018160011615610100020316600290048015611a4b5780601f10611a2057610100808354040283529160200191611a4b565b820191906000526020600020905b815481529060010190602001808311611a2e57829003601f168201915b5050505050905090565b600b8054600181600116156101000203166002900480601f016020809104026020016040519081016040528092919081815260200182805460018160011615610100020316600290048015611aeb5780601f10611ac057610100808354040283529160200191611aeb565b820191906000526020600020905b815481529060010190602001808311611ace57829003601f168201915b505050505081565b60008073ffffffffffffffffffffffffffffffffffffffff168273ffffffffffffffffffffffffffffffffffffffff161415611b7a576040517f08c379a000000000000000000000000000000000000000000000000000000000815260040180806020018281038252602a815260200180614924602a913960400191505060405180910390fd5b611bc1600160008473ffffffffffffffffffffffffffffffffffffffff1673ffffffffffffffffffffffffffffffffffffffff168152602001908152602001600020613059565b9050919050565b600f818051602081018201805184825260208301602085012081835280955050505050506000915054906101000a900460ff1681565b606060078054600181600116156101000203166002900480601f016020809104026020016040519081016040528092919081815260200182805460018160011615610100020316600290048015611c965780601f10611c6b57610100808354040283529160200191611c96565b820191906000526020600020905b815481529060010190602001808311611c7957829003601f168201915b5050505050905090565b600073ffffffffffffffffffffffffffffffffffffffff163373ffffffffffffffffffffffffffffffffffffffff161415611cda57600080fd5b600c60008154809291906001019190505550611cf7600c54612bca565b15611d0157600080fd5b601084604051611d1191906144b6565b908152602001604051809103902060009054906101000a900460ff1615611d3757600080fd5b600e85604051611d4791906144b6565b908152602001604051809103902060009054906101000a900460ff1615611d6d57600080fd5b611d7933600c5461306e565b611d85600c5485613262565b60005b82829050811015611df5576001600f848484818110611da357fe5b9050602002810190611db591906145db565b604051611dc392919061449d565b908152602001604051809103902060006101000a81548160ff0219169083151502179055508080600101915050611d88565b506001601085604051611e0891906144b6565b908152602001604051809103902060006101000a81548160ff0219169083151502179055506001600e86604051611e3f91906144b6565b908152602001604051809103902060006101000a81548160ff0219169083151502179055506000604051806101200160405280600c5481526020018781526020018681526020013373ffffffffffffffffffffffffffffffffffffffff1681526020013373ffffffffffffffffffffffffffffffffffffffff168152602001600073ffffffffffffffffffffffffffffffffffffffff1681526020018581526020016000815260200160011515815250905080600d6000600c548152602001908152602001600020600082015181600001556020820151816001019080519060200190611f2d929190613e93565b506040820151816002019080519060200190611f4a929190613e93565b5060608201518160030160006101000a81548173ffffffffffffffffffffffffffffffffffffffff021916908373ffffffffffffffffffffffffffffffffffffffff16021790555060808201518160040160006101000a81548173ffffffffffffffffffffffffffffffffffffffff021916908373ffffffffffffffffffffffffffffffffffffffff16021790555060a08201518160050160006101000a81548173ffffffffffffffffffffffffffffffffffffffff021916908373ffffffffffffffffffffffffffffffffffffffff16021790555060c0820151816006015560e082015181600701556101008201518160080160006101000a81548160ff021916908315150217905550905050505050505050565b612068612be7565b73ffffffffffffffffffffffffffffffffffffffff168273ffffffffffffffffffffffffffffffffffffffff161415612109576040517f08c379a00000000000000000000000000000000000000000000000000000000081526004018080602001828103825260198152602001807f4552433732313a20617070726f766520746f2063616c6c65720000000000000081525060200191505060405180910390fd5b8060056000612116612be7565b73ffffffffffffffffffffffffffffffffffffffff1673ffffffffffffffffffffffffffffffffffffffff16815260200190815260200160002060008473ffffffffffffffffffffffffffffffffffffffff1673ffffffffffffffffffffffffffffffffffffffff16815260200190815260200160002060006101000a81548160ff0219169083151502179055508173ffffffffffffffffffffffffffffffffffffffff166121c3612be7565b73ffffffffffffffffffffffffffffffffffffffff167f17307eab39ab6107e8899845ad3d59bd9653f200f220920489ca2b5937696c318360405180821515815260200191505060405180910390a35050565b600073ffffffffffffffffffffffffffffffffffffffff163373ffffffffffffffffffffffffffffffffffffffff16141561225057600080fd5b61225981612bca565b61226257600080fd5b600061226d82611964565b90503373ffffffffffffffffffffffffffffffffffffffff168173ffffffffffffffffffffffffffffffffffffffff16146122a757600080fd5b6000600d60008481526020019081526020016000206040518061012001604052908160008201548152602001600182018054600181600116156101000203166002900480601f01602080910402602001604051908101604052809291908181526020018280546001816001161561010002031660029004801561236b5780601f106123405761010080835404028352916020019161236b565b820191906000526020600020905b81548152906001019060200180831161234e57829003601f168201915b50505050508152602001600282018054600181600116156101000203166002900480601f01602080910402602001604051908101604052809291908181526020018280546001816001161561010002031660029004801561240d5780601f106123e25761010080835404028352916020019161240d565b820191906000526020600020905b8154815290600101906020018083116123f057829003601f168201915b505050505081526020016003820160009054906101000a900473ffffffffffffffffffffffffffffffffffffffff1673ffffffffffffffffffffffffffffffffffffffff1673ffffffffffffffffffffffffffffffffffffffff1681526020016004820160009054906101000a900473ffffffffffffffffffffffffffffffffffffffff1673ffffffffffffffffffffffffffffffffffffffff1673ffffffffffffffffffffffffffffffffffffffff1681526020016005820160009054906101000a900473ffffffffffffffffffffffffffffffffffffffff1673ffffffffffffffffffffffffffffffffffffffff1673ffffffffffffffffffffffffffffffffffffffff16815260200160068201548152602001600782015481526020016008820160009054906101000a900460ff16151515158152505090508061010001511561256b5760008161010001901515908115158152505061257e565b6001816101000190151590811515815250505b80600d60008581526020019081526020016000206000820151816000015560208201518160010190805190602001906125b8929190613e93565b5060408201518160020190805190602001906125d5929190613e93565b5060608201518160030160006101000a81548173ffffffffffffffffffffffffffffffffffffffff021916908373ffffffffffffffffffffffffffffffffffffffff16021790555060808201518160040160006101000a81548173ffffffffffffffffffffffffffffffffffffffff021916908373ffffffffffffffffffffffffffffffffffffffff16021790555060a08201518160050160006101000a81548173ffffffffffffffffffffffffffffffffffffffff021916908373ffffffffffffffffffffffffffffffffffffffff16021790555060c0820151816006015560e082015181600701556101008201518160080160006101000a81548160ff021916908315150217905550905050505050565b600e818051602081018201805184825260208301602085012081835280955050505050506000915054906101000a900460ff1681565b60008061272a83611964565b905080915050919050565b612746612740612be7565b83612cbd565b61279b576040517f08c379a0000000000000000000000000000000000000000000000000000000008152600401808060200182810382526031815260200180614a6a6031913960400191505060405180910390fd5b6127a7848484846132ec565b50505050565b600c5481565b60606127be82612bca565b612813576040517f08c379a000000000000000000000000000000000000000000000000000000000815260040180806020018281038252602f815260200180614a1a602f913960400191505060405180910390fd5b6000600860008481526020019081526020016000208054600181600116156101000203166002900480601f0160208091040260200160405190810160405280929190818152602001828054600181600116156101000203166002900480156128bc5780601f10612891576101008083540402835291602001916128bc565b820191906000526020600020905b81548152906001019060200180831161289f57829003601f168201915b5050505050905060006128cd6119b3565b90506000815114156128e3578192505050612a7f565b6000825111156129b45780826040516020018083805190602001908083835b602083106129255780518252602082019150602081019050602083039250612902565b6001836020036101000a03801982511681845116808217855250505050505090500182805190602001908083835b602083106129765780518252602082019150602081019050602083039250612953565b6001836020036101000a0380198251168184511680821785525050505050509050019250505060405160208183030381529060405292505050612a7f565b806129be8561335e565b6040516020018083805190602001908083835b602083106129f457805182526020820191506020810190506020830392506129d1565b6001836020036101000a03801982511681845116808217855250505050505090500182805190602001908083835b60208310612a455780518252602082019150602081019050602083039250612a22565b6001836020036101000a03801982511681845116808217855250505050505090500192505050604051602081830303815290604052925050505b919050565b600080612a8f610b86565b90508091505090565b600a8054600181600116156101000203166002900480601f016020809104026020016040519081016040528092919081815260200182805460018160011615610100020316600290048015612b2e5780601f10612b0357610100808354040283529160200191612b2e565b820191906000526020600020905b815481529060010190602001808311612b1157829003601f168201915b505050505081565b6000600560008473ffffffffffffffffffffffffffffffffffffffff1673ffffffffffffffffffffffffffffffffffffffff16815260200190815260200160002060008373ffffffffffffffffffffffffffffffffffffffff1673ffffffffffffffffffffffffffffffffffffffff16815260200190815260200160002060009054906101000a900460ff16905092915050565b6000612be08260026134a590919063ffffffff16565b9050919050565b600033905090565b816004600083815260200190815260200160002060006101000a81548173ffffffffffffffffffffffffffffffffffffffff021916908373ffffffffffffffffffffffffffffffffffffffff160217905550808273ffffffffffffffffffffffffffffffffffffffff16612c6283611964565b73ffffffffffffffffffffffffffffffffffffffff167f8c5be1e5ebec7d5bd14f71427d1e84f3dd0314c0f7b2291e5b200ac8c7c3b92560405160405180910390a45050565b6000612cb6826000016134bf565b9050919050565b6000612cc882612bca565b612d1d576040517f08c379a000000000000000000000000000000000000000000000000000000000815260040180806020018281038252602c8152602001806148c0602c913960400191505060405180910390fd5b6000612d2883611964565b90508073ffffffffffffffffffffffffffffffffffffffff168473ffffffffffffffffffffffffffffffffffffffff161480612d9757508373ffffffffffffffffffffffffffffffffffffffff16612d7f84610990565b73ffffffffffffffffffffffffffffffffffffffff16145b80612da85750612da78185612b36565b5b91505092915050565b8273ffffffffffffffffffffffffffffffffffffffff16612dd182611964565b73ffffffffffffffffffffffffffffffffffffffff1614612e3d576040517f08c379a00000000000000000000000000000000000000000000000000000000081526004018080602001828103825260298152602001806149f16029913960400191505060405180910390fd5b600073ffffffffffffffffffffffffffffffffffffffff168273ffffffffffffffffffffffffffffffffffffffff161415612ec3576040517f08c379a00000000000000000000000000000000000000000000000000000000081526004018080602001828103825260248152602001806148766024913960400191505060405180910390fd5b612ece8383836134d0565b612ed9600082612bef565b612f2a81600160008673ffffffffffffffffffffffffffffffffffffffff1673ffffffffffffffffffffffffffffffffffffffff1681526020019081526020016000206134d590919063ffffffff16565b50612f7c81600160008573ffffffffffffffffffffffffffffffffffffffff1673ffffffffffffffffffffffffffffffffffffffff1681526020019081526020016000206134ef90919063ffffffff16565b50612f93818360026135099092919063ffffffff16565b50808273ffffffffffffffffffffffffffffffffffffffff168473ffffffffffffffffffffffffffffffffffffffff167fddf252ad1be2c89b69c2b068fc378daa952ba7f163c4a11628f55a4df523b3ef60405160405180910390a4505050565b6000613003836000018361353e565b60001c905092915050565b60008060008061302186600001866135c1565b915091508160001c8160001c9350935050509250929050565b600061304d846000018460001b8461365a565b60001c90509392505050565b600061306782600001613750565b9050919050565b600073ffffffffffffffffffffffffffffffffffffffff168273ffffffffffffffffffffffffffffffffffffffff161415613111576040517f08c379a00000000000000000000000000000000000000000000000000000000081526004018080602001828103825260208152602001807f4552433732313a206d696e7420746f20746865207a65726f206164647265737381525060200191505060405180910390fd5b61311a81612bca565b1561318d576040517f08c379a000000000000000000000000000000000000000000000000000000000815260040180806020018281038252601c8152602001807f4552433732313a20746f6b656e20616c7265616479206d696e7465640000000081525060200191505060405180910390fd5b613199600083836134d0565b6131ea81600160008573ffffffffffffffffffffffffffffffffffffffff1673ffffffffffffffffffffffffffffffffffffffff1681526020019081526020016000206134ef90919063ffffffff16565b50613201818360026135099092919063ffffffff16565b50808273ffffffffffffffffffffffffffffffffffffffff16600073ffffffffffffffffffffffffffffffffffffffff167fddf252ad1be2c89b69c2b068fc378daa952ba7f163c4a11628f55a4df523b3ef60405160405180910390a45050565b61326b82612bca565b6132c0576040517f08c379a000000000000000000000000000000000000000000000000000000000815260040180806020018281038252602c8152602001806149c5602c913960400191505060405180910390fd5b806008600084815260200190815260200160002090805190602001906132e7929190613e93565b505050565b6132f7848484612db1565b61330384848484613761565b613358576040517f08c379a00000000000000000000000000000000000000000000000000000000081526004018080602001828103825260328152602001806148446032913960400191505060405180910390fd5b50505050565b606060008214156133a6576040518060400160405280600181526020017f300000000000000000000000000000000000000000000000000000000000000081525090506134a0565b600082905060005b600082146133d0578080600101915050600a82816133c857fe5b0491506133ae565b60008167ffffffffffffffff811180156133e957600080fd5b506040519080825280601f01601f19166020018201604052801561341c5781602001600182028036833780820191505090505b50905060006001830390508593505b6000841461349857600a848161343d57fe5b0660300160f81b8282806001900393508151811061345757fe5b60200101907effffffffffffffffffffffffffffffffffffffffffffffffffffffffffffff1916908160001a905350600a848161349057fe5b04935061342b565b819450505050505b919050565b60006134b7836000018360001b61397a565b905092915050565b600081600001805490509050919050565b505050565b60006134e7836000018360001b61399d565b905092915050565b6000613501836000018360001b613a85565b905092915050565b6000613535846000018460001b8473ffffffffffffffffffffffffffffffffffffffff1660001b613af5565b90509392505050565b60008183600001805490501161359f576040517f08c379a00000000000000000000000000000000000000000000000000000000081526004018080602001828103825260228152602001806148226022913960400191505060405180910390fd5b8260000182815481106135ae57fe5b9060005260206000200154905092915050565b60008082846000018054905011613623576040517f08c379a00000000000000000000000000000000000000000000000000000000081526004018080602001828103825260228152602001806149776022913960400191505060405180910390fd5b600084600001848154811061363457fe5b906000526020600020906002020190508060000154816001015492509250509250929050565b60008084600101600085815260200190815260200160002054905060008114158390613721576040517f08c379a00000000000000000000000000000000000000000000000000000000081526004018080602001828103825283818151815260200191508051906020019080838360005b838110156136e65780820151818401526020810190506136cb565b50505050905090810190601f1680156137135780820380516001836020036101000a031916815260200191505b509250505060405180910390fd5b5084600001600182038154811061373457fe5b9060005260206000209060020201600101549150509392505050565b600081600001805490509050919050565b60006137828473ffffffffffffffffffffffffffffffffffffffff16613bd1565b61378f5760019050613972565b60006138f963150b7a0260e01b6137a4612be7565b888787604051602401808573ffffffffffffffffffffffffffffffffffffffff1681526020018473ffffffffffffffffffffffffffffffffffffffff16815260200183815260200180602001828103825283818151815260200191508051906020019080838360005b8381101561382857808201518184015260208101905061380d565b50505050905090810190601f1680156138555780820380516001836020036101000a031916815260200191505b5095505050505050604051602081830303815290604052907bffffffffffffffffffffffffffffffffffffffffffffffffffffffff19166020820180517bffffffffffffffffffffffffffffffffffffffffffffffffffffffff8381831617835250505050604051806060016040528060328152602001614844603291398773ffffffffffffffffffffffffffffffffffffffff16613be49092919063ffffffff16565b9050600081806020019051602081101561391257600080fd5b8101908080519060200190929190505050905063150b7a0260e01b7bffffffffffffffffffffffffffffffffffffffffffffffffffffffff1916817bffffffffffffffffffffffffffffffffffffffffffffffffffffffff191614925050505b949350505050565b600080836001016000848152602001908152602001600020541415905092915050565b60008083600101600084815260200190815260200160002054905060008114613a7957600060018203905060006001866000018054905003905060008660000182815481106139e857fe5b9060005260206000200154905080876000018481548110613a0557fe5b9060005260206000200181905550600183018760010160008381526020019081526020016000208190555086600001805480613a3d57fe5b60019003818190600052602060002001600090559055866001016000878152602001908152602001600020600090556001945050505050613a7f565b60009150505b92915050565b6000613a918383613bfc565b613aea578260000182908060018154018082558091505060019003906000526020600020016000909190919091505582600001805490508360010160008481526020019081526020016000208190555060019050613aef565b600090505b92915050565b6000808460010160008581526020019081526020016000205490506000811415613b9c57846000016040518060400160405280868152602001858152509080600181540180825580915050600190039060005260206000209060020201600090919091909150600082015181600001556020820151816001015550508460000180549050856001016000868152602001908152602001600020819055506001915050613bca565b82856000016001830381548110613baf57fe5b90600052602060002090600202016001018190555060009150505b9392505050565b600080823b905060008111915050919050565b6060613bf38484600085613c1f565b90509392505050565b600080836001016000848152602001908152602001600020541415905092915050565b606082471015613c7a576040517f08c379a000000000000000000000000000000000000000000000000000000000815260040180806020018281038252602681526020018061489a6026913960400191505060405180910390fd5b613c8385613bd1565b613cf5576040517f08c379a000000000000000000000000000000000000000000000000000000000815260040180806020018281038252601d8152602001807f416464726573733a2063616c6c20746f206e6f6e2d636f6e747261637400000081525060200191505060405180910390fd5b6000808673ffffffffffffffffffffffffffffffffffffffff1685876040518082805190602001908083835b60208310613d445780518252602082019150602081019050602083039250613d21565b6001836020036101000a03801982511681845116808217855250505050505090500191505060006040518083038185875af1925050503d8060008114613da6576040519150601f19603f3d011682016040523d82523d6000602084013e613dab565b606091505b5091509150613dbb828286613dc7565b92505050949350505050565b60608315613dd757829050613e8c565b600083511115613dea5782518084602001fd5b816040517f08c379a00000000000000000000000000000000000000000000000000000000081526004018080602001828103825283818151815260200191508051906020019080838360005b83811015613e51578082015181840152602081019050613e36565b50505050905090810190601f168015613e7e5780820380516001836020036101000a031916815260200191505b509250505060405180910390fd5b9392505050565b828054600181600116156101000203166002900490600052602060002090601f016020900481019282613ec95760008555613f10565b82601f10613ee257805160ff1916838001178555613f10565b82800160010185558215613f10579182015b82811115613f0f578251825591602001919060010190613ef4565b5b509050613f1d9190613f21565b5090565b5b80821115613f3a576000816000905550600101613f22565b5090565b6000613f51613f4c84614663565b614632565b905082815260208101848484011115613f6957600080fd5b613f74848285614770565b509392505050565b6000613f8f613f8a84614693565b614632565b905082815260208101848484011115613fa757600080fd5b613fb2848285614770565b509392505050565b600081359050613fc9816147c5565b92915050565b60008083601f840112613fe157600080fd5b8235905067ffffffffffffffff811115613ffa57600080fd5b60208301915083602082028301111561401257600080fd5b9250929050565b600081359050614028816147dc565b92915050565b60008135905061403d816147f3565b92915050565b600082601f83011261405457600080fd5b8135614064848260208601613f3e565b91505092915050565b600082601f83011261407e57600080fd5b813561408e848260208601613f7c565b91505092915050565b6000813590506140a68161480a565b92915050565b6000602082840312156140be57600080fd5b60006140cc84828501613fba565b91505092915050565b600080604083850312156140e857600080fd5b60006140f685828601613fba565b925050602061410785828601613fba565b9150509250929050565b60008060006060848603121561412657600080fd5b600061413486828701613fba565b935050602061414586828701613fba565b925050604061415686828701614097565b9150509250925092565b6000806000806080858703121561417657600080fd5b600061418487828801613fba565b945050602061419587828801613fba565b93505060406141a687828801614097565b925050606085013567ffffffffffffffff8111156141c357600080fd5b6141cf87828801614043565b91505092959194509250565b600080604083850312156141ee57600080fd5b60006141fc85828601613fba565b925050602061420d85828601614019565b9150509250929050565b6000806040838503121561422a57600080fd5b600061423885828601613fba565b925050602061424985828601614097565b9150509250929050565b60006020828403121561426557600080fd5b60006142738482850161402e565b91505092915050565b60006020828403121561428e57600080fd5b600082013567ffffffffffffffff8111156142a857600080fd5b6142b48482850161406d565b91505092915050565b6000806000806000608086880312156142d557600080fd5b600086013567ffffffffffffffff8111156142ef57600080fd5b6142fb8882890161406d565b955050602086013567ffffffffffffffff81111561431857600080fd5b6143248882890161406d565b945050604061433588828901614097565b935050606086013567ffffffffffffffff81111561435257600080fd5b61435e88828901613fcf565b92509250509295509295909350565b60006020828403121561437f57600080fd5b600061438d84828501614097565b91505092915050565b600080604083850312156143a957600080fd5b60006143b785828601614097565b92505060206143c885828601614097565b9150509250929050565b6143db816146fc565b82525050565b6143ea816146ea565b82525050565b6143f98161470e565b82525050565b600061440b83856146df565b9350614418838584614770565b82840190509392505050565b600061442f826146c3565b61443981856146ce565b935061444981856020860161477f565b614452816147b4565b840191505092915050565b6000614468826146c3565b61447281856146df565b935061448281856020860161477f565b80840191505092915050565b61449781614766565b82525050565b60006144aa8284866143ff565b91508190509392505050565b60006144c2828461445d565b915081905092915050565b60006020820190506144e260008301846143e1565b92915050565b60006020820190506144fd60008301846143f0565b92915050565b6000602082019050818103600083015261451d8184614424565b905092915050565b600060208201905061453a600083018461448e565b92915050565b600061012082019050614556600083018c61448e565b8181036020830152614568818b614424565b9050818103604083015261457c818a614424565b905061458b60608301896143d2565b61459860808301886143d2565b6145a560a08301876143d2565b6145b260c083018661448e565b6145bf60e083018561448e565b6145cd6101008301846143f0565b9a9950505050505050505050565b600080833560016020038436030381126145f457600080fd5b80840192508235915067ffffffffffffffff82111561461257600080fd5b60208301925060018202360383131561462a57600080fd5b509250929050565b6000604051905081810181811067ffffffffffffffff82111715614659576146586147b2565b5b8060405250919050565b600067ffffffffffffffff82111561467e5761467d6147b2565b5b601f19601f8301169050602081019050919050565b600067ffffffffffffffff8211156146ae576146ad6147b2565b5b601f19601f8301169050602081019050919050565b600081519050919050565b600082825260208201905092915050565b600081905092915050565b60006146f582614746565b9050919050565b600061470782614746565b9050919050565b60008115159050919050565b60007fffffffff0000000000000000000000000000000000000000000000000000000082169050919050565b600073ffffffffffffffffffffffffffffffffffffffff82169050919050565b6000819050919050565b82818337600083830152505050565b60005b8381101561479d578082015181840152602081019050614782565b838111156147ac576000848401525b50505050565bfe5b6000601f19601f8301169050919050565b6147ce816146ea565b81146147d957600080fd5b50565b6147e58161470e565b81146147f057600080fd5b50565b6147fc8161471a565b811461480757600080fd5b50565b61481381614766565b811461481e57600080fd5b5056fe456e756d657261626c655365743a20696e646578206f7574206f6620626f756e64734552433732313a207472616e7366657220746f206e6f6e20455243373231526563656976657220696d706c656d656e7465724552433732313a207472616e7366657220746f20746865207a65726f2061646472657373416464726573733a20696e73756666696369656e742062616c616e636520666f722063616c6c4552433732313a206f70657261746f7220717565727920666f72206e6f6e6578697374656e7420746f6b656e4552433732313a20617070726f76652063616c6c6572206973206e6f74206f776e6572206e6f7220617070726f76656420666f7220616c6c4552433732313a2062616c616e636520717565727920666f7220746865207a65726f20616464726573734552433732313a206f776e657220717565727920666f72206e6f6e6578697374656e7420746f6b656e456e756d657261626c654d61703a20696e646578206f7574206f6620626f756e64734552433732313a20617070726f76656420717565727920666f72206e6f6e6578697374656e7420746f6b656e4552433732314d657461646174613a2055524920736574206f66206e6f6e6578697374656e7420746f6b656e4552433732313a207472616e73666572206f6620746f6b656e2074686174206973206e6f74206f776e4552433732314d657461646174613a2055524920717565727920666f72206e6f6e6578697374656e7420746f6b656e4552433732313a20617070726f76616c20746f2063757272656e74206f776e65724552433732313a207472616e736665722063616c6c6572206973206e6f74206f776e6572206e6f7220617070726f766564a264697066735822122001a8f5044029e58d9eaafed69b96feffe7d7a403f46a2e38e795e1581016b56864736f6c63430007060033",
  "immutableReferences": {},
  "source": "// SPDX-License-Identifier: MIT\npragma solidity >=0.4.21 <0.8.0;\npragma abicoder v2;\n\n// import ERC721 iterface\nimport \"./ERC721.sol\";\n\n// CryptoBoys smart contract inherits ERC721 interface\ncontract CryptoBoys is ERC721 {\n\n  // this contract's token collection name\n  string public collectionName;\n  // this contract's token symbol\n  string public collectionNameSymbol;\n  // total number of crypto boys minted\n  uint256 public cryptoBoyCounter;\n\n  // define crypto boy struct\n   struct CryptoBoy {\n    uint256 tokenId;\n    string tokenName;\n    string tokenURI;\n    address payable mintedBy;\n    address payable currentOwner;\n    address payable previousOwner;\n    uint256 price;\n    uint256 numberOfTransfers;\n    bool forSale;\n  }\n\n  // map cryptoboy's token id to crypto boy\n  mapping(uint256 => CryptoBoy) public allCryptoBoys;\n  // check if token name exists\n  mapping(string => bool) public tokenNameExists;\n  // check if color exists\n  mapping(string => bool) public colorExists;\n  // check if token URI exists\n  mapping(string => bool) public tokenURIExists;\n\n  // initialize contract while deployment with contract's collection name and token\n  constructor() ERC721(\"Crypto Boys Collection\", \"CB\") {\n    collectionName = name();\n    collectionNameSymbol = symbol();\n  }\n\n  // mint a new crypto boy\n  function mintCryptoBoy(string memory _name, string memory _tokenURI, uint256 _price, string[] calldata _colors) external {\n    // check if thic fucntion caller is not an zero address account\n    require(msg.sender != address(0));\n    // increment counter\n    cryptoBoyCounter ++;\n    // check if a token exists with the above token id => incremented counter\n    require(!_exists(cryptoBoyCounter));\n\n    // check if the token URI already exists or not\n    require(!tokenURIExists[_tokenURI]);\n    // check if the token name already exists or not\n    require(!tokenNameExists[_name]);\n\n    // mint the token\n    _mint(msg.sender, cryptoBoyCounter);\n    // set token URI (bind token id with the passed in token URI)\n    _setTokenURI(cryptoBoyCounter, _tokenURI);\n\n    // loop through the colors passed and make each of the colors as exists since the token is already minted\n    for (uint i=0; i<_colors.length; i++) {\n      colorExists[_colors[i]] = true;\n    }\n    // make passed token URI as exists\n    tokenURIExists[_tokenURI] = true;\n    // make token name passed as exists\n    tokenNameExists[_name] = true;\n\n    // creat a new crypto boy (struct) and pass in new values\n    CryptoBoy memory newCryptoBoy = CryptoBoy(\n    cryptoBoyCounter,\n    _name,\n    _tokenURI,\n    msg.sender,\n    msg.sender,\n    address(0),\n    _price,\n    0,\n    true);\n    // add the token id and it's crypto boy to all crypto boys mapping\n    allCryptoBoys[cryptoBoyCounter] = newCryptoBoy;\n  }\n\n  // get owner of the token\n  function getTokenOwner(uint256 _tokenId) public view returns(address) {\n    address _tokenOwner = ownerOf(_tokenId);\n    return _tokenOwner;\n  }\n\n  // get metadata of the token\n  function getTokenMetaData(uint _tokenId) public view returns(string memory) {\n    string memory tokenMetaData = tokenURI(_tokenId);\n    return tokenMetaData;\n  }\n\n  // get total number of tokens minted so far\n  function getNumberOfTokensMinted() public view returns(uint256) {\n    uint256 totalNumberOfTokensMinted = totalSupply();\n    return totalNumberOfTokensMinted;\n  }\n\n  // get total number of tokens owned by an address\n  function getTotalNumberOfTokensOwnedByAnAddress(address _owner) public view returns(uint256) {\n    uint256 totalNumberOfTokensOwned = balanceOf(_owner);\n    return totalNumberOfTokensOwned;\n  }\n\n  // check if the token already exists\n  function getTokenExists(uint256 _tokenId) public view returns(bool) {\n    bool tokenExists = _exists(_tokenId);\n    return tokenExists;\n  }\n\n  // by a token by passing in the token's id\n  function buyToken(uint256 _tokenId) public payable {\n    // check if the function caller is not an zero account address\n    require(msg.sender != address(0));\n    // check if the token id of the token being bought exists or not\n    require(_exists(_tokenId));\n    // get the token's owner\n    address tokenOwner = ownerOf(_tokenId);\n    // token's owner should not be an zero address account\n    require(tokenOwner != address(0));\n    // the one who wants to buy the token should not be the token's owner\n    require(tokenOwner != msg.sender);\n    // get that token from all crypto boys mapping and create a memory of it defined as (struct => CryptoBoy)\n    CryptoBoy memory cryptoboy = allCryptoBoys[_tokenId];\n    // price sent in to buy should be equal to or more than the token's price\n    require(msg.value >= cryptoboy.price);\n    // token should be for sale\n    require(cryptoboy.forSale);\n    // transfer the token from owner to the caller of the function (buyer)\n    _transfer(tokenOwner, msg.sender, _tokenId);\n    // get owner of the token\n    address payable sendTo = cryptoboy.currentOwner;\n    // send token's worth of ethers to the owner\n    sendTo.transfer(msg.value);\n    // update the token's previous owner\n    cryptoboy.previousOwner = cryptoboy.currentOwner;\n    // update the token's current owner\n    cryptoboy.currentOwner = msg.sender;\n    // update the how many times this token was transfered\n    cryptoboy.numberOfTransfers += 1;\n    // set and update that token in the mapping\n    allCryptoBoys[_tokenId] = cryptoboy;\n  }\n\n  function changeTokenPrice(uint256 _tokenId, uint256 _newPrice) public {\n    // require caller of the function is not an empty address\n    require(msg.sender != address(0));\n    // require that token should exist\n    require(_exists(_tokenId));\n    // get the token's owner\n    address tokenOwner = ownerOf(_tokenId);\n    // check that token's owner should be equal to the caller of the function\n    require(tokenOwner == msg.sender);\n    // get that token from all crypto boys mapping and create a memory of it defined as (struct => CryptoBoy)\n    CryptoBoy memory cryptoboy = allCryptoBoys[_tokenId];\n    // update token's price with new price\n    cryptoboy.price = _newPrice;\n    // set and update that token in the mapping\n    allCryptoBoys[_tokenId] = cryptoboy;\n  }\n\n  // switch between set for sale and set not for sale\n  function toggleForSale(uint256 _tokenId) public {\n    // require caller of the function is not an empty address\n    require(msg.sender != address(0));\n    // require that token should exist\n    require(_exists(_tokenId));\n    // get the token's owner\n    address tokenOwner = ownerOf(_tokenId);\n    // check that token's owner should be equal to the caller of the function\n    require(tokenOwner == msg.sender);\n    // get that token from all crypto boys mapping and create a memory of it defined as (struct => CryptoBoy)\n    CryptoBoy memory cryptoboy = allCryptoBoys[_tokenId];\n    // if token's forSale is false make it true and vice versa\n    if(cryptoboy.forSale) {\n      cryptoboy.forSale = false;\n    } else {\n      cryptoboy.forSale = true;\n    }\n    // set and update that token in the mapping\n    allCryptoBoys[_tokenId] = cryptoboy;\n  }\n}",
  "sourcePath": "D:\\Development\\1. BlockChain\\1. Ethereum\\1. NFT\\Minting\\Combined NFT\\source\\src\\contracts\\CryptoBoys.sol",
  "compiler": {
    "name": "solc",
    "version": "0.7.6+commit.7338295f.Emscripten.clang"
  },
  "schemaVersion": "3.4.3",
  "updatedAt": "2021-09-30T02:40:49.695Z",
  "networkType": "ethereum",
  "devdoc": {
    "kind": "dev",
    "methods": {
      "approve(address,uint256)": {
        "details": "See {IERC721-approve}."
      },
      "balanceOf(address)": {
        "details": "See {IERC721-balanceOf}."
      },
      "baseURI()": {
        "details": "Returns the base URI set via {_setBaseURI}. This will be automatically added as a prefix in {tokenURI} to each token's URI, or to the token ID if no specific URI is set for that token ID."
      },
      "getApproved(uint256)": {
        "details": "See {IERC721-getApproved}."
      },
      "isApprovedForAll(address,address)": {
        "details": "See {IERC721-isApprovedForAll}."
      },
      "name()": {
        "details": "See {IERC721Metadata-name}."
      },
      "ownerOf(uint256)": {
        "details": "See {IERC721-ownerOf}."
      },
      "safeTransferFrom(address,address,uint256)": {
        "details": "See {IERC721-safeTransferFrom}."
      },
      "safeTransferFrom(address,address,uint256,bytes)": {
        "details": "See {IERC721-safeTransferFrom}."
      },
      "setApprovalForAll(address,bool)": {
        "details": "See {IERC721-setApprovalForAll}."
      },
      "supportsInterface(bytes4)": {
        "details": "See {IERC165-supportsInterface}. Time complexity O(1), guaranteed to always use less than 30 000 gas."
      },
      "symbol()": {
        "details": "See {IERC721Metadata-symbol}."
      },
      "tokenByIndex(uint256)": {
        "details": "See {IERC721Enumerable-tokenByIndex}."
      },
      "tokenOfOwnerByIndex(address,uint256)": {
        "details": "See {IERC721Enumerable-tokenOfOwnerByIndex}."
      },
      "tokenURI(uint256)": {
        "details": "See {IERC721Metadata-tokenURI}."
      },
      "totalSupply()": {
        "details": "See {IERC721Enumerable-totalSupply}."
      },
      "transferFrom(address,address,uint256)": {
        "details": "See {IERC721-transferFrom}."
      }
    },
    "version": 1
  },
  "userdoc": {
    "kind": "user",
    "methods": {},
    "version": 1
  }
}